:020000040000FA
:04000000C3EF01F059
:08000800800E016EFE0E1CECDF
:1000100001F0010E1CEC01F0750E086E300E27EF9A
:1000200001F0016A018E146EFE0E1CEC01F01450FA
:100030001CEF01F00D6A0E6A0F6A106A069A22EC34
:1000400001F0D8A01200D30FD8B4068A2D0FC60F26
:10005000F6E20A0FF4E30B6E0A6A096A086A0A0EEE
:10006000076E4FEC01F00B5007240D6E08500E6E1A
:10007000000ED8B0010E0E2609500F6E000ED8B03B
:10008000010E0F260A50106E000ED8B0010E102679
:10009000040608E022EC01F0D8A01200C60F02E22C
:1000A0000A0FD9E206AA0BD00D1E0E1E0F1E101E3F
:1000B0000D2AD8B40E2AD8B40F2AD8B4102A0D505D
:1000C000D8801200046A0D6E0E6A00960450D8B4EF
:1000D0000086050E036E270E0C6E100E0CD8030E54
:1000E0000C6EE80E08D80C6A640E05D80C6A0A0E6D
:1000F00002D80D5008D00B6E0E50086E0D50076ED2
:1001000038EC01F00750076E034E0096045003E0F0
:10011000035CD8B008D00750D8A4009600B603D02E
:10012000300F1CEF01F01200A66AA68E0900F550F0
:1001300002E002D8FBD71200126E8A9400008A9661
:10014000939493960F0E9316125000B2CAEF00F0DC
:100150003A0E086E980E27EC01F0330E116E2CD873
:10016000130E086E880E27EC01F026D8640E26ECDC
:1001700001F022D8640E26EC01F0220E116E1CD87C
:10018000280E07D80C0E05D8060E03D80082125090
:1001900001D00080116E00A00AD08A9603080BE3FC
:1001A0000AD8070E086ED00E27EC01F0120000806E
:1001B000FE0810E08A8600A000908A840F0E811647
:1001C0001150F00B81128A94113A00B0F5D74B0E02
:1001D00026EC01F012501200ABB2AB98AB8802C013
:1001E00007F005C008F00B6A0C6A000000D00000A0
:1001F0009EBA13D0E8680B260C2207220822D8A04A
:1002000012000B480C3CF1D77A0E0B6E0C6AEFD73C
:10021000ABB2AB98AB889EAAFED7AE50D880120086
:10022000A66AA68E0900F55002E002D8FBD712009C
:100230009EA8FED7AD6E120001BE9CEF00F001B487
:1002400018EF01F01952C8E01904E2E0086AF50F4E
:10025000076EFE0E04E300D000000726FDE200005A
:1002600007260806F9E207A002D000D0000012001D
:100270000E6A0D6A100EF36E08340D360E360B50F2
:100280000D5C0C500E5805E30B500D5E0C500E5AD1
:10029000D88007360836F32EEFD7075012000AC071
:1002A00018F009C017F008C016F007C015F0175075
:1002B0000D02F3CF09F0F4CF0AF016500E02F350FE
:1002C0000926F4500A2215500F02F3500926F45063
:1002D0000A2218500D02F3500A2617500E02F3504E
:1002E0000A2616500F02F3500A2615501002F3503A
:1002F0000A2615500D02F3CF07F0F4CF08F0165080
:100300000D02F3500826F4500922000E0A2215505F
:100310000E02F3500826F4500922000E0A221200A1
:10032000204B6E757473656C6161722E657520204B
:1003300000005049432031384632354B323220627A
:100340006F6F746C6F616465722074657374207074
:10035000726F6772616D6D61000044617461204F5E
:100360006E7476616E67656E3A20000050494320D6
:100370006F6E7476616E6774206765656E20446188
:10038000746120200000006A0C0EAF6E200EAC6E6F
:10039000900EAB6E00017B6A7A6A7E6A7F6A0F0EEE
:1003A000C16E32DE800E016E3CDE030EF76E200E53
:1003B000F66EBADE070E056ED00E026E196A046A7A
:1003C00039DED8A0FFEF01F01A6E220E1A62F2EFAA
:1003D00001F0030EF76E320EF66E22DF0D0E28DFEF
:1003E000FDEF01F0030EF76E5A0EF66E19DF040EE4
:1003F000016E1A5067DE0D0E1BDF06EF02F0030ED2
:10040000F76E6C0EF66E0CDF0D0E12DF897A929A83
:06041000D1D7FFD7FFD792
:020000040030CA
:0300010002190ED3
:020005008180F8
:060008000FC00FE00F40E5
:00000001FF
