:020000040000fa
:080000000002040000000000f2
:020000040000fa
:04000800840300006d
:020000040000fa
:04000c0048030000a5
:020000040000fa
:040010004e0300009b
:020000040000fa
:040014005403000091
:020000040000fa
:040018005a03000087
:020000040000fa
:04001c00600300007d
:020000040000fa
:040020008403000055
:020000040000fa
:040024008403000051
:020000040000fa
:04002800840300004d
:020000040000fa
:04002c008403000049
:020000040000fa
:040030008403000045
:020000040000fa
:040034008403000041
:020000040000fa
:0400380006030000bb
:020000040000fa
:04003c008403000039
:020000040000fa
:040040008403000035
:020000040000fa
:040044008403000031
:020000040000fa
:04004800840300002d
:020000040000fa
:04004c008403000029
:020000040000fa
:040050008403000025
:020000040000fa
:040054008403000021
:020000040000fa
:04005800840300001d
:020000040000fa
:04005c008403000019
:020000040000fa
:040060008403000015
:020000040000fa
:040064008403000011
:020000040000fa
:04006800840300000d
:020000040000fa
:04006c008403000009
:020000040000fa
:040070008403000005
:020000040000fa
:040074008403000001
:020000040000fa
:0400780084030000fd
:020000040000fa
:04007c0084030000f9
:020000040000fa
:0400800084030000f5
:020000040000fa
:0400840084030000f1
:020000040000fa
:04008800c8020000aa
:020000040000fa
:04008c0084030000e9
:020000040000fa
:0400900084030000e5
:020000040000fa
:0400940084030000e1
:020000040000fa
:040098004003000021
:020000040000fa
:04009c0084030000d9
:020000040000fa
:0400a00084030000d5
:020000040000fa
:0400a40084030000d1
:020000040000fa
:0400a80084030000cd
:020000040000fa
:0400ac0084030000c9
:020000040000fa
:0400b00084030000c5
:020000040000fa
:0400b40084030000c1
:020000040000fa
:0400b80084030000bd
:020000040000fa
:0400bc0084030000b9
:020000040000fa
:0400c00084030000b5
:020000040000fa
:0400c40084030000b1
:020000040000fa
:0400c80084030000ad
:020000040000fa
:0400cc0084030000a9
:020000040000fa
:0400d00084030000a5
:020000040000fa
:0400d40084030000a1
:020000040000fa
:0400d800840300009d
:020000040000fa
:0400dc008403000099
:020000040000fa
:0400e0008403000095
:020000040000fa
:0400e4008403000091
:020000040000fa
:0400e800840300008d
:020000040000fa
:0400ec008403000089
:020000040000fa
:0400f0008403000085
:020000040000fa
:0400f4008403000081
:020000040000fa
:0400f800840300007d
:020000040000fa
:0400fc008403000079
:020000040000fa
:040100008403000074
:020000040000fa
:040104008403000070
:020000040000fa
:04010800840300006c
:020000040000fa
:04010c008403000068
:020000040000fa
:040110008403000064
:020000040000fa
:040114008403000060
:020000040000fa
:04011800840300005c
:020000040000fa
:04011c008403000058
:020000040000fa
:040120008403000054
:020000040000fa
:040124008403000050
:020000040000fa
:04012800840300004c
:020000040000fa
:04012c008403000048
:020000040000fa
:040130008403000044
:020000040000fa
:040134008403000040
:020000040000fa
:04013800840300003c
:020000040000fa
:04013c008403000038
:020000040000fa
:040140008403000034
:020000040000fa
:040144008403000030
:020000040000fa
:04014800840300002c
:020000040000fa
:04014c008403000028
:020000040000fa
:040150008403000024
:020000040000fa
:040154008403000020
:020000040000fa
:04015800840300001c
:020000040000fa
:04015c008403000018
:020000040000fa
:040160008403000014
:020000040000fa
:040164008403000010
:020000040000fa
:04020800840300006b
:020000040000fa
:04020c006603000085
:020000040000fa
:040210006c0300007b
:020000040000fa
:040214007203000071
:020000040000fa
:040218007803000067
:020000040000fa
:04021c007e0300005d
:020000040000fa
:040220008403000053
:020000040000fa
:04022400840300004f
:020000040000fa
:04022800840300004b
:020000040000fa
:04022c008403000047
:020000040000fa
:040230008403000043
:020000040000fa
:04023400840300003f
:020000040000fa
:0402380006030000b9
:020000040000fa
:04023c008403000037
:020000040000fa
:040240008403000033
:020000040000fa
:04024400840300002f
:020000040000fa
:04024800840300002b
:020000040000fa
:04024c008403000027
:020000040000fa
:040250008403000023
:020000040000fa
:04025400840300001f
:020000040000fa
:04025800840300001b
:020000040000fa
:04025c008403000017
:020000040000fa
:040260008403000013
:020000040000fa
:04026400840300000f
:020000040000fa
:04026800840300000b
:020000040000fa
:04026c008403000007
:020000040000fa
:040270008403000003
:020000040000fa
:0402740084030000ff
:020000040000fa
:0402780084030000fb
:020000040000fa
:04027c0084030000f7
:020000040000fa
:0402800084030000f3
:020000040000fa
:0402840084030000ef
:020000040000fa
:04028800c8020000a8
:020000040000fa
:04028c0084030000e7
:020000040000fa
:0402900084030000e3
:020000040000fa
:0402940084030000df
:020000040000fa
:04029800400300001f
:020000040000fa
:04029c0084030000d7
:020000040000fa
:0402a00084030000d3
:020000040000fa
:0402a40084030000cf
:020000040000fa
:0402a80084030000cb
:020000040000fa
:0402ac0084030000c7
:020000040000fa
:0402b00084030000c3
:020000040000fa
:0402b40084030000bf
:020000040000fa
:0402b80084030000bb
:020000040000fa
:0402bc0084030000b7
:020000040000fa
:0402c00084030000b3
:020000040000fa
:0402c40084030000af
:020000040000fa
:0402c80084030000ab
:020000040000fa
:0402cc0084030000a7
:020000040000fa
:0402d00084030000a3
:020000040000fa
:0402d400840300009f
:020000040000fa
:0402d800840300009b
:020000040000fa
:0402dc008403000097
:020000040000fa
:0402e0008403000093
:020000040000fa
:0402e400840300008f
:020000040000fa
:0402e800840300008b
:020000040000fa
:0402ec008403000087
:020000040000fa
:0402f0008403000083
:020000040000fa
:0402f400840300007f
:020000040000fa
:0402f800840300007b
:020000040000fa
:0402fc008403000077
:020000040000fa
:040300008403000072
:020000040000fa
:04030400840300006e
:020000040000fa
:04030800840300006a
:020000040000fa
:04030c008403000066
:020000040000fa
:040310008403000062
:020000040000fa
:04031400840300005e
:020000040000fa
:04031800840300005a
:020000040000fa
:04031c008403000056
:020000040000fa
:040320008403000052
:020000040000fa
:04032400840300004e
:020000040000fa
:04032800840300004a
:020000040000fa
:04032c008403000046
:020000040000fa
:040330008403000042
:020000040000fa
:04033400840300003e
:020000040000fa
:04033800840300003a
:020000040000fa
:04033c008403000036
:020000040000fa
:040340008403000032
:020000040000fa
:04034400840300002e
:020000040000fa
:04034800840300002a
:020000040000fa
:04034c008403000026
:020000040000fa
:040350008403000022
:020000040000fa
:04035400840300001e
:020000040000fa
:04035800840300001a
:020000040000fa
:04035c008403000016
:020000040000fa
:040360008403000012
:020000040000fa
:04036400840300000e
:020000040000fa
:100400006fb020000ebf23000e0188000000000026
:10041000000020000000e000020032000001200087
:100420002002880014000700040107000000e0001b
:1004300003003a00004220000100200002003700c3
:100440000000200001002000810f70000100320038
:1004500014000700000020000000e000020032004d
:100460000000020000000000bc07020000000000c5
:100470000040da000000fe004440a9000000200017
:100480000000e0000300320000002000a00188000e
:100490004440a800000006008a1f78008b1f7800e7
:1004a0000000060091018800800478000000eb0045
:1004b0001a003700e284440032a0b4009905ba0063
:1004c000e284440032a0b4009906ba00e2844400f9
:1004d00032a0b4000006eb00476fde00fd07b2005b
:1004e000636ce10003003a00ebff07000000eb0043
:1004f0000a003700606ce10004003a00005deb0088
:100500008b05e900fdff3e00040037006168e10053
:10051000010032000086eb000b00070019c7ba008b
:100520001905ba000e04e00003003a000a00e000da
:10053000e0ff3a0000000600fe07b2009e018800be
:100540008a047800f5ff3700395dba008b05e900b1
:100550000c003200295dba008b05e900080032006a
:100560000c00e00003003a00e284440032a0b40032
:10057000f5ff370019ddba008b05e900faff3a00f4
:100580008904e800e184440032a0b40000000600c1
:100590003600f800809fbe00829fbe00849fbe0090
:1005a000869fbe000000fa008700a900101f80008f
:1005b000640060000000e0000700320000782400c2
:1005c000e3f0230000017800017c240000022000f9
:1005d0005c0007000600370000742400e3f02300ed
:1005e00000017800017c2400000220005500070073
:1005f0000080fa004f03be004f02be004f01be0054
:100600004f00be003600f900004006003600f8003a
:10061000809fbe00829fbe00849fbe00869fbe005a
:100620000000fa008480a900101f800061006000b3
:100630000000e0000600320000702400027c24006c
:10064000800078000002200031000700050037001c
:10065000006c2400027c240080007800000220004e
:100660002b0007000080fa004f03be004f02be00bf
:100670004f01be004f00be003600f90000400600ea
:100680000000fa008780a9000080fa000040060000
:100690000000fa008020a900ffff37000000fa00e8
:1006a0008060a900ffff37000000fa008040a90029
:1006b000ffff37000000fa008080a900ffff37002d
:1006c0000000fa0080a0a900ffff37000000fa0038
:1006d0008020a900ffff37000000fa008060a90019
:1006e000ffff37000000fa008040a900ffff37003d
:1006f0000000fa008080a900ffff37000000fa0028
:1007000080a0a900ffff37000000fa00ffff3700bc
:10071000810178000000e90000800900b21878002b
:100720000300780000000600800090000101e9004d
:10073000c0009000000020000280090080187800ae
:1007400000000600889fbe008a9fbe008c9fbe00ee
:100750008e1f78004400f800080f2000280288004f
:100760003400f8004600f8004800f8004a00f8009d
:100770004c00f8004e00f8008a0a2c003a0288006b
:100780002304900058028800130490004802880057
:10079000530590007a028800430590006a028800a1
:1007a000811f78000f0778003305900007f02f00b5
:1007b0000a38e10004003200270280004700b3003d
:1007c00027028800aa0188006305900003029000b8
:1007d000630252000000e9000080080007000000ea
:1007e000320d7800000000004618c30004800900a4
:1007f0004618c4004218c4001201c4003100cd00e4
:10080000ea0198008e0778004f0078004e00f9004a
:100810004c00f9004a00f9004800f9004600f900d0
:100820003400f9004400f9004f0778004f06be007d
:100830004f05be004f04be0000000600000005008a
:020000040000fa
:100840000e3f00000e000000000000000008000045
:1008500006030000020000003200f900ffd2ff0092
:100860000700fc00ffffff00ffff0000000000008a
:10087000fffffe00fffdff00fdfffe00ff00000088
:100880000300050000070000080006000002000049
:10089000fdfff800fff4ff00f2fff400fff9ff0096
:1008a000000009000010000015001500000f0000f6
:1008b0000600fa00ffeeff00e5ffe200ffe6ff00a2
:1008c000f1ff0000001100001f00270000270000ba
:1008d0001d000b0000f5ff00e0ffd200ffcdff0080
:1008e000d4ffe600ffffff001b003200003f0000c6
:1008f0003d002d0000120000f0ffd000ffbaff0005
:10090000b2ffbd00ffd8ff00feff27000048000037
:100910005b005900004200001a00ea00ffbdff0022
:100920009eff9300ffa2ff00c8fffc00ff34000001
:1009300062007b00007800005a00240000e5ff0000
:10094000a9ff7f00ff71ff0084ffb500fffaff00e1
:1009500042007d00009e00009b00740000300000fb
:10096000dfff9300ff5eff004cff6400ffa1ff006c
:10097000f6ff5000009a0000c200bf00008f000088
:100980003d00da00ff7dff003cff2700ff44ff0031
:100990008cfff200ff5d0000b500e60000e2000001
:1009a000aa004a0000d6ff0069ff1d00ff03ff00f8
:1009b00024ff7800ffedff006900cf000008010070
:1009c0000401c50000570000d3ff5700ff00ff00df
:1009d000e2fe0600ff64ff00e8ff730000e5000090
:1009e0002501220001dc00006300d100ff48ff0068
:1009f000e8fec700feedfe0053ffe200ff7a0000b4
:100a0000f7003d00013a0100f0006d0000d1ff0049
:100a10003effd600feb1fe00dafe4600ffddff001d
:100a20007e000300014d01004c01fe000076000035
:100a3000d2ff3800ffcbfe00a4fecd00fe3cff003d
:100a4000d9ff7e0000080100550155000106010094
:100a50007c00d500ff38ff00c8fea0007ec8fe0065
:100a600038ffd500ff7c000006015500015501004c
:100a700008017e0000d9ff003cffcd00fea4fe006f
:100a8000cbfe3800ffd2ff007600fe00004c0100d4
:100a90004d010300017e0000ddff4600ffdafe008d
:100aa000b1fed600fe3eff00d1ff6d0000f0000059
:100ab0003a013d0001f700007a00e200ff53ff0019
:100ac000edfec700fee8fe0048ffd100ff63000016
:100ad000dc00220001250100e500730000e8ff00b2
:100ae00064ff0600ffe2fe0000ff5700ffd3ff0097
:100af0005700c500000401000801cf000069000094
:100b0000edff7800ff24ff0003ff1d00ff69ff00d9
:100b1000d6ff4a0000aa0000e200e60000b500008f
:100b20005d00f200ff8cff0044ff2700ff3cff0048
:100b30007dffda00ff3d00008f00bf0000c2000013
:100b40009a00500000f6ff00a1ff6400ff4cff0078
:100b50005eff9300ffdfff0030007400009b000089
:100b60009e007d0000420000faffb500ff84ff00f8
:100b700071ff7f00ffa9ff00e5ff2400005a00007d
:100b800078007b00006200003400fc00ffc8ff001a
:100b9000a2ff9300ff9eff00bdffea00ff1a0000c6
:100ba00042005900005b00004800270000feff00e3
:100bb000d8ffbd00ffb2ff00baffd000fff0ff007a
:100bc00012002d00003d00003f003200001b00001d
:100bd000ffffe600ffd4ff00cdffd200ffe0ff00e3
:100be000f5ff0b00001d000027002700001f00007c
:100bf0001100000000f1ff00e6ffe200ffe5ff004a
:100c0000eefffa00ff0600000f00150000150000bf
:100c10001000090000000000f9fff400fff2ff00df
:100c2000f4fff800fffdff000200060000080000ce
:100c300007000500000300000000fe00fffdff00ac
:100c4000fdfffe00ffffff000000000000ffff00af
:100c5000fffffc00ff070000d2fff900ff32000099
:100c6000003c00000e03000000000000c047000030
:100c7000400000000000000080470000400000002d
:100c8000000000004047000040000000000000009d
:100c9000004700004000000000000000c0460000c7
:0c0ca00040000000000000000000000008
:020000040000fa
:100cac000000fa00c842a900c8e2a8000080fa00bf
:100cbc00000006000000fa00011c8000f0fc2f0070
:100ccc0000806000001c8800011c8000c0ff2f0009
:100cdc00008060000010a000001c880081a3a80008
:100cec00603f2000401c8800f0012000501c880050
:100cfc00e0042000101c880000702000201c8800dc
:100d0c00006c2000301c88008480a9009480a8000e
:100d1c0081e3a800f2e3a800f243a800f183a90044
:100d2c00811f800000f82f0000806000f000b300ed
:100d3c00801f8800f103a80000002800a01f880075
:100d4c00f1e3a8000080fa00000006000000fa00a1
:100d5c00c11c8000f0fc2f0000806000c01c8800cb
:100d6c00c11c8000c0ff2f00008060000010a0009c
:100d7c00c01c880099a3a90000302000001d880029
:100d8c00f0012000101d8800d0002000d01c88002d
:100d9c0000782000e01c880000742000f01c880003
:100dac008700a9009700a80099e3a8002143a80098
:100dbc0011198000f0ff21000080600000f0a000fd
:100dcc001019880025e3a90090c0b30024e3b700f4
:100ddc000080eb00601988002c03a9001119800019
:100dec00f0cf2f000080600010198800411980009e
:100dfc0000fe2f00008060004019880028e3a90045
:100e0c002043a80001198000003020000100700070
:100e1c00001988001119800030fc2f000080600040
:100e2c001019880001198000f0f12f00008060007b
:100e3c000070a0000019880021198000f00f2e000e
:100e4c008080600000502000010070002019880094
:100e5c0085a0a90095a0a90021e1a9002021a90045
:100e6c0020c1a90001098000f0fc2f000080600067
:100e7c00000988001821ef00f03f2000e0088800ee
:100e8c009105800080ff2f00008060000000a00012
:100e9c00900588008780a9009780a90021e1a8000f
:100eac0021e3a8000080fa00000006000000fa0010
:100ebc0040a7a900e0012000303a8800213a8000c8
:100ecc00f0f32f0000806000203a8800213a800067
:100edc0000fe2f0000806000203a880032002000c5
:100eec0080072000a109200033742000804978007d
:100efc008149780082497800103a8000000178001e
:100f0c000200a00060042000710520002374200062
:100f1c0080497800814978008249780000000000ff
:100f2c00113a800000002700808060000000230040
:100f3c00808f5000faff3a0000000000113a800048
:100f4c0000022000008060000000e000fbff320087
:100f5c00513a80000070200001007000503a880067
:100f6c004ba7a9000080fa00000006000000fa0060
:100f7c00ceff070075ff07004eff0700301820005a
:100f8c0070f889000080200080f8890050b02000a3
:100f9c0090f8890000f02f00a0f8890000c0230011
:100fac00b0f8890050f02300c0f88900b0f8810037
:100fbc00d0f88900e0f02300d8fd0700ffff3700d0
:020000040000fa
:0200000401f009
:04000000ffff0000fe
:020000040000fa
:0200000401f009
:04000400ffff0000fa
:020000040000fa
:0200000401f009
:04000800ffff0000f6
:020000040000fa
:0200000401f009
:04000c0000000000f0
:020000040000fa
:0200000401f009
:040010006500000087
:020000040000fa
:0200000401f009
:040014005f00000089
:020000040000fa
:0200000401f009
:04001800f7000000ed
:020000040000fa
:0200000401f009
:04001c00dfff000002
:00000001FF
