:020000040000FA
:0400000000EF3FF0DE
:047DFC000000000083
:107E0000600ED36E2B6AABD8276AC80EB3D8C108F0
:107E100005E0272A275002083FE0F7D72A0EBBD8F3
:107E2000830EB9D8000EB7D84B0EB5D8216AA1D8A9
:107E3000F86E9FD8F76E9DD8F66EA96E9AD82A6E06
:107E400098D8226E236E00EE00F093D8EE6E222EAC
:107E5000FCD7216677D02AA210D0F8660ED0F7663C
:107E60000CD0F6660AD000EE00F0000EEE6EEF0EBB
:107E7000EE6E3F0EEE6EF00EEE6E00EE00F02AA0FB
:107E800002D02B68D1D72AB209D02AB448D02AB65A
:107E900050D0550E80D8CAD769D8B0D70000F8CFD7
:107EA0002CF0F7CF2DF0F6CF2EF0060E246ED890E2
:107EB0002C322D322E32242EFBD7010E2D5C16E6ED
:107EC000010E2D5C03E1F80E2E5C10E6010E2D5C18
:107ED00002E001E60BD0010E2D5C05E1FF0E2E5CE9
:107EE00002E001E603D0500E56D8A0D72BA003D055
:107EF000940E2BD82B6A200E286E296EEECFF5FF3C
:107F00000D00282EFBD70A00840E1FD800EE1FF0AC
:107F10000A00ED50F56213D0292EFAD785D7EFCF9E
:107F2000A8FF040E12D8010EA680EF50A86207D059
:107F30007BD7EFCFF5FF0C00C40E07D875D7560ED0
:107F40002AD874D74E0E27D871D7A66E550EA76EB5
:107F5000AA0EA76EA682A6B2FED7A6941200240E81
:107F6000AC6E190EAF6E900EAB6E1200AB6AAC6ABF
:107F70001200C80E246E0D0E256E266A04009EAAFD
:107F800003D0AE5021261200262EF8D7252EF5D785
:0E7F9000242EF1D781D7AD6EACA2FED7120021
:020000040030CA
:03000100080A0EDC
:020005008881F0
:060008000FC00FE00F40E5
:00000001FF
