:020000040000fa
:080000000002040000000000f2
:020000040000fa
:0400080002050000ed
:020000040000fa
:04000c00c604000026
:020000040000fa
:04001000cc0400001c
:020000040000fa
:04001400d204000012
:020000040000fa
:04001800d804000008
:020000040000fa
:04001c00de040000fe
:020000040000fa
:0400200002050000d5
:020000040000fa
:0400240002050000d1
:020000040000fa
:0400280002050000cd
:020000040000fa
:04002c0002050000c9
:020000040000fa
:0400300002050000c5
:020000040000fa
:0400340002050000c1
:020000040000fa
:0400380002050000bd
:020000040000fa
:04003c0002050000b9
:020000040000fa
:0400400002050000b5
:020000040000fa
:0400440002050000b1
:020000040000fa
:0400480002050000ad
:020000040000fa
:04004c0002050000a9
:020000040000fa
:0400500002050000a5
:020000040000fa
:04005400980300000d
:020000040000fa
:04005800020500009d
:020000040000fa
:04005c000205000099
:020000040000fa
:040060006203000037
:020000040000fa
:040064000205000091
:020000040000fa
:04006800020500008d
:020000040000fa
:04006c000205000089
:020000040000fa
:040070000205000085
:020000040000fa
:040074000205000081
:020000040000fa
:04007800020500007d
:020000040000fa
:04007c000205000079
:020000040000fa
:040080000205000075
:020000040000fa
:040084000205000071
:020000040000fa
:04008800c8020000aa
:020000040000fa
:04008c000205000069
:020000040000fa
:040090000205000065
:020000040000fa
:040094000205000061
:020000040000fa
:04009800020500005d
:020000040000fa
:04009c000205000059
:020000040000fa
:0400a0000205000055
:020000040000fa
:0400a4000205000051
:020000040000fa
:0400a800020500004d
:020000040000fa
:0400ac000205000049
:020000040000fa
:0400b0000205000045
:020000040000fa
:0400b4000205000041
:020000040000fa
:0400b800020500003d
:020000040000fa
:0400bc000205000039
:020000040000fa
:0400c0000205000035
:020000040000fa
:0400c4000205000031
:020000040000fa
:0400c800020500002d
:020000040000fa
:0400cc000205000029
:020000040000fa
:0400d0000205000025
:020000040000fa
:0400d4000205000021
:020000040000fa
:0400d800020500001d
:020000040000fa
:0400dc000205000019
:020000040000fa
:0400e0000205000015
:020000040000fa
:0400e4000205000011
:020000040000fa
:0400e800020500000d
:020000040000fa
:0400ec000205000009
:020000040000fa
:0400f0000205000005
:020000040000fa
:0400f4000205000001
:020000040000fa
:0400f80002050000fd
:020000040000fa
:0400fc0002050000f9
:020000040000fa
:0401000002050000f4
:020000040000fa
:0401040002050000f0
:020000040000fa
:0401080002050000ec
:020000040000fa
:04010c0002050000e8
:020000040000fa
:0401100002050000e4
:020000040000fa
:0401140002050000e0
:020000040000fa
:0401180002050000dc
:020000040000fa
:04011c0002050000d8
:020000040000fa
:0401200002050000d4
:020000040000fa
:0401240002050000d0
:020000040000fa
:0401280002050000cc
:020000040000fa
:04012c0002050000c8
:020000040000fa
:0401300002050000c4
:020000040000fa
:0401340002050000c0
:020000040000fa
:0401380002050000bc
:020000040000fa
:04013c0002050000b8
:020000040000fa
:0401400002050000b4
:020000040000fa
:0401440002050000b0
:020000040000fa
:0401480002050000ac
:020000040000fa
:04014c0002050000a8
:020000040000fa
:0401500002050000a4
:020000040000fa
:0401540002050000a0
:020000040000fa
:04015800020500009c
:020000040000fa
:04015c000205000098
:020000040000fa
:040160000205000094
:020000040000fa
:040164000205000090
:020000040000fa
:0402080002050000eb
:020000040000fa
:04020c00e404000006
:020000040000fa
:04021000ea040000fc
:020000040000fa
:04021400f0040000f2
:020000040000fa
:04021800f6040000e8
:020000040000fa
:04021c00fc040000de
:020000040000fa
:0402200002050000d3
:020000040000fa
:0402240002050000cf
:020000040000fa
:0402280002050000cb
:020000040000fa
:04022c0002050000c7
:020000040000fa
:0402300002050000c3
:020000040000fa
:0402340002050000bf
:020000040000fa
:0402380002050000bb
:020000040000fa
:04023c0002050000b7
:020000040000fa
:0402400002050000b3
:020000040000fa
:0402440002050000af
:020000040000fa
:0402480002050000ab
:020000040000fa
:04024c0002050000a7
:020000040000fa
:0402500002050000a3
:020000040000fa
:04025400980300000b
:020000040000fa
:04025800020500009b
:020000040000fa
:04025c000205000097
:020000040000fa
:040260006203000035
:020000040000fa
:04026400020500008f
:020000040000fa
:04026800020500008b
:020000040000fa
:04026c000205000087
:020000040000fa
:040270000205000083
:020000040000fa
:04027400020500007f
:020000040000fa
:04027800020500007b
:020000040000fa
:04027c000205000077
:020000040000fa
:040280000205000073
:020000040000fa
:04028400020500006f
:020000040000fa
:04028800c8020000a8
:020000040000fa
:04028c000205000067
:020000040000fa
:040290000205000063
:020000040000fa
:04029400020500005f
:020000040000fa
:04029800020500005b
:020000040000fa
:04029c000205000057
:020000040000fa
:0402a0000205000053
:020000040000fa
:0402a400020500004f
:020000040000fa
:0402a800020500004b
:020000040000fa
:0402ac000205000047
:020000040000fa
:0402b0000205000043
:020000040000fa
:0402b400020500003f
:020000040000fa
:0402b800020500003b
:020000040000fa
:0402bc000205000037
:020000040000fa
:0402c0000205000033
:020000040000fa
:0402c400020500002f
:020000040000fa
:0402c800020500002b
:020000040000fa
:0402cc000205000027
:020000040000fa
:0402d0000205000023
:020000040000fa
:0402d400020500001f
:020000040000fa
:0402d800020500001b
:020000040000fa
:0402dc000205000017
:020000040000fa
:0402e0000205000013
:020000040000fa
:0402e400020500000f
:020000040000fa
:0402e800020500000b
:020000040000fa
:0402ec000205000007
:020000040000fa
:0402f0000205000003
:020000040000fa
:0402f40002050000ff
:020000040000fa
:0402f80002050000fb
:020000040000fa
:0402fc0002050000f7
:020000040000fa
:0403000002050000f2
:020000040000fa
:0403040002050000ee
:020000040000fa
:0403080002050000ea
:020000040000fa
:04030c0002050000e6
:020000040000fa
:0403100002050000e2
:020000040000fa
:0403140002050000de
:020000040000fa
:0403180002050000da
:020000040000fa
:04031c0002050000d6
:020000040000fa
:0403200002050000d2
:020000040000fa
:0403240002050000ce
:020000040000fa
:0403280002050000ca
:020000040000fa
:04032c0002050000c6
:020000040000fa
:0403300002050000c2
:020000040000fa
:0403340002050000be
:020000040000fa
:0403380002050000ba
:020000040000fa
:04033c0002050000b6
:020000040000fa
:0403400002050000b2
:020000040000fa
:0403440002050000ae
:020000040000fa
:0403480002050000aa
:020000040000fa
:04034c0002050000a6
:020000040000fa
:0403500002050000a2
:020000040000fa
:04035400020500009e
:020000040000fa
:04035800020500009a
:020000040000fa
:04035c000205000096
:020000040000fa
:040360000205000092
:020000040000fa
:04036400020500008e
:020000040000fa
:10040000cfa420000e6b24000e0188000000000025
:10041000000020000000e000020032000001200087
:100420002002880014000700d70107000000e00048
:1004300003003a00006f2000010020000200370096
:100440000000200001002000810f70000100320038
:1004500014000700000020000000e000020032004d
:1004600000000200000000000e0802000000000072
:100470000040da000000fe004440a9000000200017
:100480000000e0000300320000002000a00188000e
:100490004440a800000006008a1f78008b1f7800e7
:1004a0000000060091018800800478000000eb0045
:1004b0001a003700e284440032a0b4009905ba0063
:1004c000e284440032a0b4009906ba00e2844400f9
:1004d00032a0b4000006eb00476fde00fd07b2005b
:1004e000636ce10003003a00ebff07000000eb0043
:1004f0000a003700606ce10004003a00005deb0088
:100500008b05e900fdff3e00040037006168e10053
:10051000010032000086eb000b00070019c7ba008b
:100520001905ba000e04e00003003a000a00e000da
:10053000e0ff3a0000000600fe07b2009e018800be
:100540008a047800f5ff3700395dba008b05e900b1
:100550000c003200295dba008b05e900080032006a
:100560000c00e00003003a00e284440032a0b40032
:10057000f5ff370019ddba008b05e900faff3a00f4
:100580008904e800e184440032a0b40000000600c1
:100590003600f800809fbe00829fbe00849fbe0090
:1005a000869fbe000000fa008700a900101f80008f
:1005b000640060000000e00010003a008392200018
:1005c00002782400c19420000002200030010700be
:1005d0004393200002782400c198200000022000ec
:1005e0002b0107000394200002782400c19c200006
:1005f00000022000260107000f0037008392200030
:10060000027c2400c1942000000220002001070089
:1006100043932000027c2400c198200000022000a7
:100620001b01070003942000027c2400c19c2000d1
:1006300000022000160107000040800080017800c1
:10064000c2942000c194200000022000f5000700a1
:100650001040800080017800c2982000c1982000de
:1006600000022000ef000700204080008001780099
:10067000c29c2000c19c200000022000e90007006d
:10068000c3982000c2942000c1a0200000022000d6
:10069000f2000700c39c2000c2a02000c1a02000df
:1006a00000022000ed0007000080fa004f03be00aa
:1006b0004f02be004f01be004f00be003600f900e1
:1006c000004006003600f800809fbe00829fbe00fa
:1006d000849fbe00869fbe000000fa0085c0a9006e
:1006e000101f8000620060000000e00005003a007a
:1006f000c2a020000170240000022000c3000700f7
:1007000004003700c2a02000017424000002200071
:10071000be0007000080fa004f03be004f02be007b
:100720004f01be004f00be003600f9000040060039
:10073000809fbe000000fa008560a9003011800093
:10074000004078000be8b7000bc8bf000000fb00ba
:1007500051042000810f50004b0032005104200052
:10076000810f500007003c0011042000810f500051
:100770001e00320041042000810f5000530032005f
:100780005d00370031052000810f5000330032003a
:1007900071052000810f50001f003200110520005c
:1007a000810f500054003a0001408000404080001a
:1007b0008080400030408000808f500051003c001d
:1007c0000140800040408000808040006040800008
:1007d000808f50004d003500014080004040800077
:1007e0000080400000408800570037000140800032
:1007f000404080008080500060408000808f50002a
:1008000044003500014080004040800000805000de
:10081000004088004c0037001140800040408000bc
:100820008080400030408000808f50003b003c00c2
:100830001140800040408000808040006040800087
:10084000808f50003700350011408000404080000c
:1008500000804000104088003b00370011408000bd
:10086000404080008080500060408000808f5000b9
:100870002e00350011408000404080000080500074
:100880001040880030003700214080004040800048
:100890008080400030408000808f500025003c0068
:1008a0002140800040408000808040006040800007
:1008b000808f5000210035002140800040408000a2
:1008c00000804000204088001f0037002140800049
:1008d000404080008080500060408000808f500049
:1008e000180035002140800040408000008050000a
:1008f0002040880014003700e0c4b3000ae8b700c5
:1009000011003700000000000f0037000000000059
:100910000d003700000000000b0037000000000051
:100920000900370000000000070037000000000049
:100930000500370000000000030037000000000041
:1009400001003700000000006016800064006000b5
:1009500000f0a7000000ea000000e9004f00de0000
:10096000004078000080fb00610060004200dd0074
:10097000611680000120a10001007000601688004f
:100980000080fa004f00be00004006000000fa00a0
:100990008020a900ffff37000000fa008060a90056
:1009a000ffff37000000fa008040a900ffff37007a
:1009b0000000fa008080a900ffff37000000fa0065
:1009c00080a0a900ffff37000000fa008020a900e6
:1009d000ffff37000000fa008060a900ffff37002a
:1009e0000000fa008040a900ffff37000000fa0075
:1009f0008080a900ffff37000000fa0080a0a90056
:100a0000ffff37000000fa00ffff37008101780088
:100a10000000e90000800900b218780003007800a7
:100a2000000006004400f800040f200024028800a3
:100a3000811f78000000e9000302780000800800b0
:100a400002000000b20278001301c0003100cd00a6
:100a50004f0078004400f900000006004400f80050
:100a6000040f200024028800010278000000e90041
:100a700000800800020000003200ca003300c900f4
:100a80003100cc00040078004400f90000000600aa
:100a9000889fbe008a9fbe008c9fbe008e1f78007c
:100aa0004400f800080f2000280288003400f800f5
:100ab000811f78000f0778002305900007f02f00b2
:100ac0000a38e10004003200270280004700b3002a
:100ad00027028800aa01880003029000d304900036
:100ae0000000e900008008001500000013049000d9
:100af00033059000c3059000320378009a00ca00c5
:100b0000b8027800048008000a0000005210c400f7
:100b10009b80ca008707cd005290c4005290c50048
:100b2000ba87cd005390c4008607cd009a00ca0052
:100b30005290c500bb87cd000600ca000900c8005e
:100b40003100cd008e0778004f0078003400f900a6
:100b50004400f9004f0778004f06be004f05be0065
:100b60004f04be0000000600b0009000400190005d
:100b70000000900000800800010000008018eb00d9
:0c0b80000019eb0000000600000005005a
:020000040000fa
:100b8c000000fa0021e1a9002021a90020c1a90040
:100b9c0001098000f0fc2f00008060000009880033
:100bac001821ef00f03f2000e0088800910580003c
:100bbc0080ff2f00008060000000a00090058800de
:100bcc008780a9009780a90021e1a8000119800065
:100bdc00003020000100700000198800011980000d
:100bec00f0f12f00008060000070a0000019880058
:100bfc002043a80011198000f0ff21000080600044
:100c0c0000f0a000101988002143a8002203a800be
:100c1c0011198000f0cf2f0000806000101988009f
:100c2c0025e3a90090c0b30024e3b7002183a800fa
:100c3c001119800030fc2f00008060001019880012
:100c4c004119800000fe2f000080600040198800d0
:100c5c0028e3a9000080eb00601988002c03a90090
:100c6c0085a0a90095a0a90021e3a800c11c8000c3
:100c7c00f0fc2f0000806000c01c8800c11c8000ac
:100c8c00c0ff2f00008060000010a000c01c880076
:100c9c0099a3a90000302000001d8800f00120005d
:100cac00101d8800d0002000d01c8800007c200083
:100cbc00e01c880000782000f01c88008700a90048
:100ccc009700a80099e3a800611c8000f0fc2f009d
:100cdc0000806000601c8800611c8000c0ff2f0039
:100cec00008060000010a000601c88008da3a8008c
:100cfc00803f2000a01c8800f0012000b01c880060
:100d0c00f0042000701c880000742000801c8800f7
:100d1c0000702000901c880085c0a90095c0a80018
:100d2c008de3a800f2e3a800f3e3a800f243a800c7
:100d3c00f343a800f183a900811f800000f82f0065
:100d4c0000806000f000b300801f8800f103a80051
:100d5c00f1e3a800c842a9002135800000fe2f0055
:100d6c00008060005000b300203588009136800070
:100d7c00f00f2e00808060000060200001007000e9
:100d8c009036880021e2a9002002a9000111800000
:100d9c0090ff2f00008060000011880020a2a900a5
:100dac002062a90030102000401188001111800031
:100dbc00f0f32f0000806000101188009560a800ef
:100dcc008560a90021e2a8002342a8000080fa0057
:040ddc00000006000d
:020000040000fa
:100de0000a080000020000000000000028090000be
:100df000240100000000000040080000280000005e
:100e0000020000004f009e0000a773004f00190071
:100e1000cb4f00009e00a700734f000019cb4f007e
:100e2000009e0000a7734f000019cb004f009e00ea
:100e300000a773004f001900cb00000080080000dd
:100e40005000000002000000c0038000075c4f005b
:100e5000c0037800e1c0030080075c004fc00300be
:100e600078e1c000038007005c4fc0000378e10018
:100e7000c0038000075c4f00c0037800e1c23c0063
:100e80007c86ce007ac23c00f6c4c2003c7c860060
:100e9000ce7ac2003cf6c400c23c7c0086ce7a000a
:100ea000c23cf600c4c23c007c86ce007ac23c0044
:100eb000f6c4000000090000280000000200000045
:100ec000f834100096356900f834e100d2f83400a7
:100ed0001096350069f83400e1d2f800341096001d
:100ee0003569f80034e1d200f83410009635690015
:100ef000f834e100d2000000c047000040000000cc
:100f000000000000804700004000000000000000da
:100f100040470000400000000000000000470000c3
:100f20004000000000000000c0460000400000003b
:100f300000000000000800000a000000020000009d
:100f40000040000040004000ff7fcd000c0000008a
:100f50000c0800000200000000000000000000007b
:020000040000fa
:100f60000000fa00e0012000303a8800213a8000b9
:100f7000f0f32f0000806000203a8800213a8000c2
:100f800000fe2f0000806000203a88003200200020
:100f900080072000a10920003374200080497800d8
:100fa0008149780082497800103a80000001780079
:100fb0000200a000600420007105200023742000be
:100fc000804978008149780082497800000000005b
:100fd000113a80000000270080806000000023009c
:100fe000808f5000faff3a0000000000113a8000a4
:100ff00000022000008060000000e000fbff3200e3
:10100000513a80000070200001007000503a8800c2
:101010004ba7a9000080fa00000006000000fa00bb
:10102000300020004049880000842000504988009a
:1010300000f02f0060498800006c2400704988008f
:10104000806c2400804988000000eb0090498800f3
:1010500070002000a049880000882000b049880066
:1010600000f02f00c0498800006d2400d04988009e
:10107000006e2400e04988000000eb00f049880081
:1010800030002000004a880000902000104a8800ac
:1010900000f02f00204a8800006f2400304a8800aa
:1010a000806f2400404a88000000eb00504a88000e
:1010b00080922000acfe070040932000aafe0700ab
:1010c00000942000a8fe0700a5ff0700affe070060
:0410d000ffff3700e7
:020000040000fa
:0200000401f009
:04000000ffff0000fe
:020000040000fa
:0200000401f009
:04000400ffff0000fa
:020000040000fa
:0200000401f009
:04000800ffff0000f6
:020000040000fa
:0200000401f009
:04000c0000000000f0
:020000040000fa
:0200000401f009
:040010006500000087
:020000040000fa
:0200000401f009
:040014005f00000089
:020000040000fa
:0200000401f009
:04001800f7000000ed
:020000040000fa
:0200000401f009
:04001c00dfff000002
:00000001FF
