:020000040000fa
:080000000002040000000000f2
:020000040000fa
:040008006803000089
:020000040000fa
:04000c002c030000c1
:020000040000fa
:0400100032030000b7
:020000040000fa
:0400140038030000ad
:020000040000fa
:040018003e030000a3
:020000040000fa
:04001c004403000099
:020000040000fa
:040020006803000071
:020000040000fa
:04002400680300006d
:020000040000fa
:040028006803000069
:020000040000fa
:04002c006803000065
:020000040000fa
:040030006803000061
:020000040000fa
:04003400680300005d
:020000040000fa
:040038001c030000a5
:020000040000fa
:04003c006803000055
:020000040000fa
:040040006803000051
:020000040000fa
:04004400680300004d
:020000040000fa
:04004800c8020000ea
:020000040000fa
:04004c006803000045
:020000040000fa
:040050006803000041
:020000040000fa
:04005400680300003d
:020000040000fa
:040058006803000039
:020000040000fa
:04005c006803000035
:020000040000fa
:040060002403000075
:020000040000fa
:04006400680300002d
:020000040000fa
:040068006803000029
:020000040000fa
:04006c006803000025
:020000040000fa
:040070006803000021
:020000040000fa
:04007400680300001d
:020000040000fa
:040078006803000019
:020000040000fa
:04007c006803000015
:020000040000fa
:040080006803000011
:020000040000fa
:04008400680300000d
:020000040000fa
:040088006803000009
:020000040000fa
:04008c006803000005
:020000040000fa
:040090006803000001
:020000040000fa
:0400940068030000fd
:020000040000fa
:0400980068030000f9
:020000040000fa
:04009c0068030000f5
:020000040000fa
:0400a00068030000f1
:020000040000fa
:0400a40068030000ed
:020000040000fa
:0400a80068030000e9
:020000040000fa
:0400ac0068030000e5
:020000040000fa
:0400b00068030000e1
:020000040000fa
:0400b40068030000dd
:020000040000fa
:0400b80068030000d9
:020000040000fa
:0400bc0068030000d5
:020000040000fa
:0400c00068030000d1
:020000040000fa
:0400c40068030000cd
:020000040000fa
:0400c80068030000c9
:020000040000fa
:0400cc0068030000c5
:020000040000fa
:0400d00068030000c1
:020000040000fa
:0400d40068030000bd
:020000040000fa
:0400d80068030000b9
:020000040000fa
:0400dc0068030000b5
:020000040000fa
:0400e00068030000b1
:020000040000fa
:0400e40068030000ad
:020000040000fa
:0400e80068030000a9
:020000040000fa
:0400ec0068030000a5
:020000040000fa
:0400f00068030000a1
:020000040000fa
:0400f400680300009d
:020000040000fa
:0400f8006803000099
:020000040000fa
:0400fc006803000095
:020000040000fa
:040100006803000090
:020000040000fa
:04010400680300008c
:020000040000fa
:040108006803000088
:020000040000fa
:04010c006803000084
:020000040000fa
:040110006803000080
:020000040000fa
:04011400680300007c
:020000040000fa
:040118006803000078
:020000040000fa
:04011c006803000074
:020000040000fa
:040120006803000070
:020000040000fa
:04012400680300006c
:020000040000fa
:040128006803000068
:020000040000fa
:04012c006803000064
:020000040000fa
:040130006803000060
:020000040000fa
:04013400680300005c
:020000040000fa
:040138006803000058
:020000040000fa
:04013c006803000054
:020000040000fa
:040140006803000050
:020000040000fa
:04014400680300004c
:020000040000fa
:040148006803000048
:020000040000fa
:04014c006803000044
:020000040000fa
:040150006803000040
:020000040000fa
:04015400680300003c
:020000040000fa
:040158006803000038
:020000040000fa
:04015c006803000034
:020000040000fa
:040160006803000030
:020000040000fa
:04016400680300002c
:020000040000fa
:040208006803000087
:020000040000fa
:04020c004a030000a1
:020000040000fa
:040210005003000097
:020000040000fa
:04021400560300008d
:020000040000fa
:040218005c03000083
:020000040000fa
:04021c006203000079
:020000040000fa
:04022000680300006f
:020000040000fa
:04022400680300006b
:020000040000fa
:040228006803000067
:020000040000fa
:04022c006803000063
:020000040000fa
:04023000680300005f
:020000040000fa
:04023400680300005b
:020000040000fa
:040238006803000057
:020000040000fa
:04023c006803000053
:020000040000fa
:04024000680300004f
:020000040000fa
:04024400680300004b
:020000040000fa
:040248006803000047
:020000040000fa
:04024c006803000043
:020000040000fa
:04025000680300003f
:020000040000fa
:04025400680300003b
:020000040000fa
:040258006803000037
:020000040000fa
:04025c006803000033
:020000040000fa
:04026000680300002f
:020000040000fa
:04026400680300002b
:020000040000fa
:040268006803000027
:020000040000fa
:04026c006803000023
:020000040000fa
:04027000680300001f
:020000040000fa
:04027400680300001b
:020000040000fa
:040278006803000017
:020000040000fa
:04027c006803000013
:020000040000fa
:04028000680300000f
:020000040000fa
:04028400680300000b
:020000040000fa
:040288006803000007
:020000040000fa
:04028c006803000003
:020000040000fa
:0402900068030000ff
:020000040000fa
:0402940068030000fb
:020000040000fa
:0402980068030000f7
:020000040000fa
:04029c0068030000f3
:020000040000fa
:0402a00068030000ef
:020000040000fa
:0402a40068030000eb
:020000040000fa
:0402a80068030000e7
:020000040000fa
:0402ac0068030000e3
:020000040000fa
:0402b00068030000df
:020000040000fa
:0402b40068030000db
:020000040000fa
:0402b80068030000d7
:020000040000fa
:0402bc0068030000d3
:020000040000fa
:0402c00068030000cf
:020000040000fa
:0402c40068030000cb
:020000040000fa
:0402c80068030000c7
:020000040000fa
:0402cc0068030000c3
:020000040000fa
:0402d00068030000bf
:020000040000fa
:0402d40068030000bb
:020000040000fa
:0402d80068030000b7
:020000040000fa
:0402dc0068030000b3
:020000040000fa
:0402e00068030000af
:020000040000fa
:0402e40068030000ab
:020000040000fa
:0402e80068030000a7
:020000040000fa
:0402ec0068030000a3
:020000040000fa
:0402f000680300009f
:020000040000fa
:0402f400680300009b
:020000040000fa
:0402f8006803000097
:020000040000fa
:0402fc006803000093
:020000040000fa
:04030000680300008e
:020000040000fa
:04030400680300008a
:020000040000fa
:040308006803000086
:020000040000fa
:04030c006803000082
:020000040000fa
:04031000680300007e
:020000040000fa
:04031400680300007a
:020000040000fa
:040318006803000076
:020000040000fa
:04031c006803000072
:020000040000fa
:04032000680300006e
:020000040000fa
:04032400680300006a
:020000040000fa
:040328006803000066
:020000040000fa
:04032c006803000062
:020000040000fa
:04033000680300005e
:020000040000fa
:04033400680300005a
:020000040000fa
:040338006803000056
:020000040000fa
:04033c006803000052
:020000040000fa
:04034000680300004e
:020000040000fa
:04034400680300004a
:020000040000fa
:040348006803000046
:020000040000fa
:04034c006803000042
:020000040000fa
:04035000680300003e
:020000040000fa
:04035400680300003a
:020000040000fa
:040358006803000036
:020000040000fa
:04035c006803000032
:020000040000fa
:04036000680300002e
:020000040000fa
:04036400680300002a
:020000040000fa
:100400006f8020000e6f24000e01880000000000a5
:10041000000020000000e000020032000001200087
:100420002002880014000700ab0007000000e00075
:1004300003003a008058200001002000020037002d
:100440000000200001002000810f70000100320038
:1004500014000700000020000000e000020032004d
:1004600000000200000000000a0602000000000078
:100470000040da000000fe004440a9000000200017
:100480000000e0000300320000002000a00188000e
:100490004440a800000006008a1f78008b1f7800e7
:1004a0000000060091018800800478000000eb0045
:1004b0001a003700e284440032a0b4009905ba0063
:1004c000e284440032a0b4009906ba00e2844400f9
:1004d00032a0b4000006eb00476fde00fd07b2005b
:1004e000636ce10003003a00ebff07000000eb0043
:1004f0000a003700606ce10004003a00005deb0088
:100500008b05e900fdff3e00040037006168e10053
:10051000010032000086eb000b00070019c7ba008b
:100520001905ba000e04e00003003a000a00e000da
:10053000e0ff3a0000000600fe07b2009e018800be
:100540008a047800f5ff3700395dba008b05e900b1
:100550000c003200295dba008b05e900080032006a
:100560000c00e00003003a00e284440032a0b40032
:10057000f5ff370019ddba008b05e900faff3a00f4
:100580008904e800e184440032a0b40000000600c1
:10059000809fbe000000fa008500a9006016800060
:1005a0004200de006140600000c0ea00614060007f
:1005b0000080fb00610060004200dd0061168000e9
:1005c0000120a10001007000601688006016800004
:1005d0004300de006140600000c0ea00614060004e
:1005e0000080fb00610060004300dd0061168000b8
:1005f0000130a1000100700060168800a016800084
:100600004300de006140600000c0ea00614060001d
:100610000080fb00610060004300dd00a116800047
:100620000130a10001007000a01688000080fa00cf
:100630004f00be00004006000000fa008480a900c0
:100640000080fa00004006000000fa0085c0a90002
:100650000080fa00004006000000fa008020a90097
:10066000ffff37000000fa008060a900ffff37009d
:100670000000fa008040a900ffff37000000fa00e8
:100680008080a900ffff37000000fa0080a0a900c9
:10069000ffff37000000fa008020a900ffff3700ad
:1006a0000000fa008060a900ffff37000000fa0098
:1006b0008040a900ffff37000000fa008080a900f9
:1006c000ffff37000000fa0080a0a900ffff3700fd
:0c06d0000000fa00ffff370000000500ea
:020000040000fa
:1006dc000000fa00f5000700f8000700fc00070016
:1006ec00010107000080fa00000006000000fa007b
:1006fc00c842a900c862a900d062a900c8e2a8003b
:10070c00c942a8000080fa00000006000000fa00b0
:10071c0013e1a90011e1a9001061a8001021a900a2
:10072c0010c1a90081088000f0fc2f00008060003f
:10073c00800888000a21ef000621ef00101320002a
:10074c007008880000d022006008880041058000f5
:10075c0080ff2f00008060005000b300400588002f
:10076c008500a9009500a80011e1a8000080fa00fe
:10077c00000006000000fa00e0012000303a88007a
:10078c00213a8000f0f32f0000806000203a8800ae
:10079c00213a800000fe2f0000806000203a880083
:1007ac003200200080072000a109200033742000b3
:1007bc00804978008149780082497800103a80009d
:1007cc00000178000200a0006004200071052000e8
:1007dc002374200080497800814978008249780090
:1007ec0000000000113a80000000270080806000ab
:1007fc0000002300808f5000faff3a000000000038
:10080c00113a800000022000008060000000e0002f
:10081c00fbff3200513a8000007020000100700094
:10082c00503a88004ba7a9000080fa00000006008f
:10083c000000fa00f1e3a800f2e3a800f3e3a8003b
:10084c00f243a800f343a800f183a900811f8000a4
:10085c0000f82f0000806000f000b300801f8800bb
:10086c00f103a800f423ef000080fa00000006005a
:10087c000000fa00011c8000f0fc2f0000806000da
:10088c00001c8800011c8000c0ff2f00008060004d
:10089c000010a000001c880081a3a800603f20006d
:1008ac00401c8800f0012000501c8800e00420004f
:1008bc00101c8800007c2000201c88000078200080
:1008cc00301c88008480a9009480a80081e3a800d3
:1008dc000080fa00000006000000fa00611c800095
:1008ec00f0fc2f0000806000601c8800611c800000
:1008fc00c0ff2f00008060000010a000601c88006a
:10090c008da3a800803f2000a01c8800f0012000cf
:10091c00b01c8800f0042000701c880000742000bb
:10092c00801c880000702000901c880085c0a900e5
:10093c0095c0a8008de3a8000080fa000000060016
:10094c000000fa00c11c8000f0fc2f000080600049
:10095c00c01c8800c11c8000c0ff2f0000806000fc
:10096c000010a000c01c880099a3a9000030200032
:10097c00001d8800f0012000101d8800d000200010
:10098c00d01c880000782000e01c8800007c20002f
:10099c00f01c88008700a9009700a80099e3a80024
:1009ac000080fa00000006000000fa0021e1a90016
:1009bc002021a90020c1a90001098000f0fc2f0012
:1009cc0000806000000988000621ef000040200034
:1009dc00e00888009105800080ff2f0000806000f7
:1009ec000000a000900588008780a9009780a900ce
:1009fc0021e1a8000080fa00000006000000fa00c7
:100a0c002143a80011198000f0ff21000080600034
:100a1c001019880025e3a90090c0b30024e3b700a7
:100a2c000080eb00601988002c03a90011198000cc
:100a3c00f0cf2f0000806000101988004119800051
:100a4c0000fe2f00008060004019880028e3a900f8
:100a5c002043a80001198000003020000100700024
:100a6c00001988001119800030fc2f0000806000f4
:100a7c001019880001198000f0f12f00008060002f
:100a8c000070a0000019880021198000f00f2e00c2
:100a9c008080600000502000010070002019880048
:100aac0021e3a8000080fa00000006000000fa0014
:100abc000eff07000080fa00000006000000fa009c
:100acc002cff070011ff07000080fa000000060051
:100adc000000fa0066ff07007fff070054ff0700c5
:100aec000080fa00000006000000fa00f8ff070082
:100afc0093ff0700acff0700c0ff07000080fa005f
:040b0c0000000600df
:020000040000fa
:100b1000000800000400000002000000ff7f000049
:100b20008000000004080000020000000000000037
:100b3000c0470000400000000000000080470000a7
:100b4000400000000000000040470000400000009e
:100b5000020000000000f80018fb30001c47810074
:100b60005a6c6a00407689007dff7f00897d4000d5
:100b7000766c6a00815a1c0047fb3000f8180000b0
:100b80000007e70004cfe300b87ea5009395bf00ff
:100b9000897682000180760082bf890093957e006d
:100ba000a5e3b80004cf0700e700000000470000fd
:100bb00040000000020000000000f80018fb3000b8
:100bc0001c4781005a6c6a00407689007dff7f00d7
:100bd000897d4000766c6a00815a1c0047fb30001a
:100be000f81800000007e70004cfe300b87ea50076
:100bf0009395bf00897682000180760082bf8900cc
:100c000093957e00a5e3b80004cf0700e70000003d
:040c100000000000e0
:020000040000fa
:100c14000000fa0002000700affe0700ffff3700e4
:0c0c24000000fa000080fa00000006004a
:020000040000fa
:0200000401f009
:04000000ffff0000fe
:020000040000fa
:0200000401f009
:04000400ffff0000fa
:020000040000fa
:0200000401f009
:04000800ffff0000f6
:020000040000fa
:0200000401f009
:04000c0000000000f0
:020000040000fa
:0200000401f009
:040010006500000087
:020000040000fa
:0200000401f009
:040014005f00000089
:020000040000fa
:0200000401f009
:04001800f7000000ed
:020000040000fa
:0200000401f009
:04001c00dfff000002
:00000001FF
