:020000040000fa
:080000000002040000000000f2
:020000040000fa
:040008007803000079
:020000040000fa
:04000c003c030000b1
:020000040000fa
:0400100042030000a7
:020000040000fa
:04001400480300009d
:020000040000fa
:040018004e03000093
:020000040000fa
:04001c005403000089
:020000040000fa
:040020007803000061
:020000040000fa
:04002400780300005d
:020000040000fa
:040028007803000059
:020000040000fa
:04002c007803000055
:020000040000fa
:040030007803000051
:020000040000fa
:04003400780300004d
:020000040000fa
:040038001c030000a5
:020000040000fa
:04003c007803000045
:020000040000fa
:040040007803000041
:020000040000fa
:04004400780300003d
:020000040000fa
:04004800c8020000ea
:020000040000fa
:04004c007803000035
:020000040000fa
:040050007803000031
:020000040000fa
:040054002c03000079
:020000040000fa
:040058007803000029
:020000040000fa
:04005c007803000025
:020000040000fa
:040060002403000075
:020000040000fa
:04006400780300001d
:020000040000fa
:040068007803000019
:020000040000fa
:04006c007803000015
:020000040000fa
:040070007803000011
:020000040000fa
:04007400780300000d
:020000040000fa
:040078007803000009
:020000040000fa
:04007c007803000005
:020000040000fa
:040080007803000001
:020000040000fa
:0400840078030000fd
:020000040000fa
:0400880078030000f9
:020000040000fa
:04008c0078030000f5
:020000040000fa
:0400900078030000f1
:020000040000fa
:0400940078030000ed
:020000040000fa
:0400980078030000e9
:020000040000fa
:04009c0078030000e5
:020000040000fa
:0400a00078030000e1
:020000040000fa
:0400a40078030000dd
:020000040000fa
:0400a80078030000d9
:020000040000fa
:0400ac0078030000d5
:020000040000fa
:0400b00078030000d1
:020000040000fa
:0400b40078030000cd
:020000040000fa
:0400b80078030000c9
:020000040000fa
:0400bc0078030000c5
:020000040000fa
:0400c00078030000c1
:020000040000fa
:0400c40078030000bd
:020000040000fa
:0400c80078030000b9
:020000040000fa
:0400cc0078030000b5
:020000040000fa
:0400d00078030000b1
:020000040000fa
:0400d40078030000ad
:020000040000fa
:0400d80078030000a9
:020000040000fa
:0400dc0078030000a5
:020000040000fa
:0400e00078030000a1
:020000040000fa
:0400e400780300009d
:020000040000fa
:0400e8007803000099
:020000040000fa
:0400ec007803000095
:020000040000fa
:0400f0007803000091
:020000040000fa
:0400f400780300008d
:020000040000fa
:0400f8007803000089
:020000040000fa
:0400fc007803000085
:020000040000fa
:040100007803000080
:020000040000fa
:04010400780300007c
:020000040000fa
:040108007803000078
:020000040000fa
:04010c007803000074
:020000040000fa
:040110007803000070
:020000040000fa
:04011400780300006c
:020000040000fa
:040118007803000068
:020000040000fa
:04011c007803000064
:020000040000fa
:040120007803000060
:020000040000fa
:04012400780300005c
:020000040000fa
:040128007803000058
:020000040000fa
:04012c007803000054
:020000040000fa
:040130007803000050
:020000040000fa
:04013400780300004c
:020000040000fa
:040138007803000048
:020000040000fa
:04013c007803000044
:020000040000fa
:040140007803000040
:020000040000fa
:04014400780300003c
:020000040000fa
:040148007803000038
:020000040000fa
:04014c007803000034
:020000040000fa
:040150007803000030
:020000040000fa
:04015400780300002c
:020000040000fa
:040158007803000028
:020000040000fa
:04015c007803000024
:020000040000fa
:040160007803000020
:020000040000fa
:04016400780300001c
:020000040000fa
:040208007803000077
:020000040000fa
:04020c005a03000091
:020000040000fa
:040210006003000087
:020000040000fa
:04021400660300007d
:020000040000fa
:040218006c03000073
:020000040000fa
:04021c007203000069
:020000040000fa
:04022000780300005f
:020000040000fa
:04022400780300005b
:020000040000fa
:040228007803000057
:020000040000fa
:04022c007803000053
:020000040000fa
:04023000780300004f
:020000040000fa
:04023400780300004b
:020000040000fa
:040238007803000047
:020000040000fa
:04023c007803000043
:020000040000fa
:04024000780300003f
:020000040000fa
:04024400780300003b
:020000040000fa
:040248007803000037
:020000040000fa
:04024c007803000033
:020000040000fa
:04025000780300002f
:020000040000fa
:04025400780300002b
:020000040000fa
:040258007803000027
:020000040000fa
:04025c007803000023
:020000040000fa
:04026000780300001f
:020000040000fa
:04026400780300001b
:020000040000fa
:040268007803000017
:020000040000fa
:04026c007803000013
:020000040000fa
:04027000780300000f
:020000040000fa
:04027400780300000b
:020000040000fa
:040278007803000007
:020000040000fa
:04027c007803000003
:020000040000fa
:0402800078030000ff
:020000040000fa
:0402840078030000fb
:020000040000fa
:0402880078030000f7
:020000040000fa
:04028c0078030000f3
:020000040000fa
:0402900078030000ef
:020000040000fa
:0402940078030000eb
:020000040000fa
:0402980078030000e7
:020000040000fa
:04029c0078030000e3
:020000040000fa
:0402a00078030000df
:020000040000fa
:0402a40078030000db
:020000040000fa
:0402a80078030000d7
:020000040000fa
:0402ac0078030000d3
:020000040000fa
:0402b00078030000cf
:020000040000fa
:0402b40078030000cb
:020000040000fa
:0402b80078030000c7
:020000040000fa
:0402bc0078030000c3
:020000040000fa
:0402c00078030000bf
:020000040000fa
:0402c40078030000bb
:020000040000fa
:0402c80078030000b7
:020000040000fa
:0402cc0078030000b3
:020000040000fa
:0402d00078030000af
:020000040000fa
:0402d40078030000ab
:020000040000fa
:0402d80078030000a7
:020000040000fa
:0402dc0078030000a3
:020000040000fa
:0402e000780300009f
:020000040000fa
:0402e400780300009b
:020000040000fa
:0402e8007803000097
:020000040000fa
:0402ec007803000093
:020000040000fa
:0402f000780300008f
:020000040000fa
:0402f400780300008b
:020000040000fa
:0402f8007803000087
:020000040000fa
:0402fc007803000083
:020000040000fa
:04030000780300007e
:020000040000fa
:04030400780300007a
:020000040000fa
:040308007803000076
:020000040000fa
:04030c007803000072
:020000040000fa
:04031000780300006e
:020000040000fa
:04031400780300006a
:020000040000fa
:040318007803000066
:020000040000fa
:04031c007803000062
:020000040000fa
:04032000780300005e
:020000040000fa
:04032400780300005a
:020000040000fa
:040328007803000056
:020000040000fa
:04032c007803000052
:020000040000fa
:04033000780300004e
:020000040000fa
:04033400780300004a
:020000040000fa
:040338007803000046
:020000040000fa
:04033c007803000042
:020000040000fa
:04034000780300003e
:020000040000fa
:04034400780300003a
:020000040000fa
:040348007803000036
:020000040000fa
:04034c007803000032
:020000040000fa
:04035000780300002e
:020000040000fa
:04035400780300002a
:020000040000fa
:040358007803000026
:020000040000fa
:04035c007803000022
:020000040000fa
:04036000780300001e
:020000040000fa
:04036400780300001a
:020000040000fa
:100400008f8020000e6f24000e0188000000000085
:10041000000020000000e000020032000001200087
:100420002002880014000700b30007000000e0006d
:1004300003003a00a05e2000010020000200370007
:100440000000200001002000810f70000100320038
:1004500014000700000020000000e000020032004d
:1004600000000200000000006c0602000000000016
:100470000040da000000fe004440a9000000200017
:100480000000e0000300320000002000a00188000e
:100490004440a800000006008a1f78008b1f7800e7
:1004a0000000060091018800800478000000eb0045
:1004b0001a003700e284440032a0b4009905ba0063
:1004c000e284440032a0b4009906ba00e2844400f9
:1004d00032a0b4000006eb00476fde00fd07b2005b
:1004e000636ce10003003a00ebff07000000eb0043
:1004f0000a003700606ce10004003a00005deb0088
:100500008b05e900fdff3e00040037006168e10053
:10051000010032000086eb000b00070019c7ba008b
:100520001905ba000e04e00003003a000a00e000da
:10053000e0ff3a0000000600fe07b2009e018800be
:100540008a047800f5ff3700395dba008b05e900b1
:100550000c003200295dba008b05e900080032006a
:100560000c00e00003003a00e284440032a0b40032
:10057000f5ff370019ddba008b05e900faff3a00f4
:100580008904e800e184440032a0b40000000600c1
:10059000809fbe000000fa008500a9006016800060
:1005a0004200de006140600000c0ea00614060007f
:1005b0000080fb00610060004200dd0061168000e9
:1005c0000120a10001007000601688006016800004
:1005d0004300de006140600000c0ea00614060004e
:1005e0000080fb00610060004300dd0061168000b8
:1005f0000130a1000100700060168800a016800084
:100600004300de006140600000c0ea00614060001d
:100610000080fb00610060004300dd00a116800047
:100620000130a10001007000a01688000080fa00cf
:100630004f00be00004006000000fa008480a900c0
:100640000080fa00004006000000fa0085c0a90002
:100650000080fa0000400600801f78000000fa00c9
:100660008560a90030118000201188000080fa0008
:100670004f007800004006000000fa008020a9002a
:10068000ffff37000000fa008060a900ffff37007d
:100690000000fa008040a900ffff37000000fa00c8
:1006a0008080a900ffff37000000fa0080a0a900a9
:1006b000ffff37000000fa008020a900ffff37008d
:1006c0000000fa008060a900ffff37000000fa0078
:1006d0008040a900ffff37000000fa008080a900d9
:1006e000ffff37000000fa0080a0a900ffff3700dd
:0c06f0000000fa00ffff370000000500ca
:020000040000fa
:1006fc000000fa00180107001b0107001f0107008a
:10070c00240107002a0107000080fa0000000600ff
:10071c000000fa00c842a900c862a900d062a90072
:10072c00c8e2a800c942a8000080fa000000060038
:10073c000000fa0013e1a90011e1a9001061a80062
:10074c001021a90010c1a90081088000f0fc2f0025
:10075c0000806000800888000a21ef000621ef006d
:10076c00101320007008880000d022006008880058
:10077c004105800080ff2f00008060005000b30016
:10078c00400588008500a9009500a80011e1a8008b
:10079c000080fa00000006000000fa00e0012000d2
:1007ac00303a8800213a8000f0f32f00008060007e
:1007bc00203a8800213a800000fe2f000080600063
:1007cc00203a88003200200080072000a109200078
:1007dc003374200080497800814978008249780080
:1007ec00103a8000000178000200a0006004200094
:1007fc00710520002374200080497800814978001d
:10080c008249780000000000113a800000002700a7
:10081c008080600000002300808f5000faff3a00b7
:10082c0000000000113a80000002200000806000ef
:10083c000000e000fbff3200513a80000070200005
:10084c0001007000503a88004ba7a9000080fa0004
:10085c00000006000000fa00f1e3a800f2e3a80093
:10086c00f3e3a800f243a800f343a800f183a90026
:10087c00811f800000f82f0000806000f000b300a2
:10088c00801f8800f103a800f423ef000080fa0019
:10089c00000006000000fa00011c8000f0fc2f0094
:1008ac0000806000001c8800011c8000c0ff2f002d
:1008bc00008060000010a000001c880081a3a8002c
:1008cc00603f2000401c8800f0012000501c880074
:1008dc00e0042000101c8800007c2000201c8800f4
:1008ec0000782000301c88008480a9009480a80027
:1008fc0081e3a8000080fa00000006000000fa0066
:10090c00611c8000f0fc2f0000806000601c8800df
:10091c00611c8000c0ff2f00008060000010a00050
:10092c00601c88008da3a800803f2000a01c8800bc
:10093c00f0012000b01c8800f0042000701c88001e
:10094c0000742000801c880000702000901c88001f
:10095c0085c0a90095c0a8008de3a8000080fa000e
:10096c00000006000000fa00c11c8000f0fc2f0003
:10097c0000806000c01c8800c11c8000c0ff2f00dc
:10098c00008060000010a000c01c880099a3a90082
:10099c0000302000001d8800f0012000101d880090
:1009ac00d0002000d01c880000782000e01c8800bb
:1009bc00007c2000f01c88008700a9009700a8008c
:1009cc0099e3a8000080fa00000006000000fa007d
:1009dc0021e1a9002021a90020c1a9000109800062
:1009ec00f0fc2f0000806000000988000621ef0059
:1009fc0000402000e00888009105800080ff2f0057
:100a0c00008060000000a000900588008780a9008d
:100a1c009780a90021e1a8000080fa0000000600e0
:100a2c000000fa002143a80011198000f0ff2100fa
:100a3c00008060001019880025e3a90090c0b30065
:100a4c0024e3b7000080eb00601988002c03a90098
:100a5c0011198000f0cf2f00008060001019880061
:100a6c004119800000fe2f000080600040198800b2
:100a7c0028e3a9002043a8000119800000302000c1
:100a8c0001007000001988001119800030fc2f0043
:100a9c00008060001019880001198000f0f12f000f
:100aac00008060000070a0000019880021198000ef
:100abc00f00f2e00808060000050200001007000bc
:100acc002019880021e3a8000080fa00000006002d
:100adc000000fa000111800090ff2f0000806000e0
:100aec00001188002002a90020a2a9002062a90000
:100afc00301020004011880011118000f0f32f00fd
:100b0c0000806000101188009560a8008560a90025
:100b1c00410580000000270001007000400588009e
:100b2c002135800000fe2f00008060005000b300d3
:100b3c00203588003136800000fe2f0000806000d8
:100b4c003000b3003036880021e2a8002342a80010
:100b5c000080fa00000006000000fa00ecfe07001e
:100b6c000080fa00000006000000fa000aff0700ef
:100b7c00effe07000080fa00000006000000fa00fb
:100b8c0044ff07005dff070032ff07000080fa00fa
:100b9c00000006000000fa00f8ff070071ff0700d4
:100bac008aff07009eff07000080fa000000060085
:100bbc000000fa00d6fe0700f7fe0700c4ff07008e
:080bcc000080fa0000000600a1
:020000040000fa
:100bd400000800000400000002000000ff7f000085
:100be4008000000004080000040000000000000071
:100bf400c0470000400000000000000080470000e3
:100c040040000000000000004047000040000000d9
:100c1400020000000000f80018fb30001c478100af
:100c24005a6c6a00407689007dff7f00897d400010
:100c3400766c6a00815a1c0047fb3000f8180000eb
:100c44000007e70004cfe300b87ea5009395bf003a
:100c5400897682000180760082bf890093957e00a8
:100c6400a5e3b80004cf0700e70000000047000038
:100c740040000000020000000000f80018fb3000f3
:100c84001c4781005a6c6a00407689007dff7f0012
:100c9400897d4000766c6a00815a1c0047fb300055
:100ca400f81800000007e70004cfe300b87ea500b1
:100cb4009395bf00897682000180760082bf890007
:100cc40093957e00a5e3b80004cf0700e700000079
:040cd400000000001c
:020000040000fa
:100cd8000000fa000200070086fe0700ffff370049
:0c0ce8000000fa000080fa000000060086
:020000040000fa
:0200000401f009
:04000000ffff0000fe
:020000040000fa
:0200000401f009
:04000400ffff0000fa
:020000040000fa
:0200000401f009
:04000800ffff0000f6
:020000040000fa
:0200000401f009
:04000c0000000000f0
:020000040000fa
:0200000401f009
:040010006500000087
:020000040000fa
:0200000401f009
:040014005f00000089
:020000040000fa
:0200000401f009
:04001800f7000000ed
:020000040000fa
:0200000401f009
:04001c00dfff000002
:00000001FF
