:020000040000fa
:080000000002040000000000f2
:020000040000fa
:0400080040030000b1
:020000040000fa
:04000c0004030000e9
:020000040000fa
:040010000a030000df
:020000040000fa
:0400140010030000d5
:020000040000fa
:0400180016030000cb
:020000040000fa
:04001c001c030000c1
:020000040000fa
:040020004003000099
:020000040000fa
:040024004003000095
:020000040000fa
:040028004003000091
:020000040000fa
:04002c00400300008d
:020000040000fa
:040030004003000089
:020000040000fa
:040034004003000085
:020000040000fa
:040038004003000081
:020000040000fa
:04003c00400300007d
:020000040000fa
:040040004003000079
:020000040000fa
:040044004003000075
:020000040000fa
:04004800c8020000ea
:020000040000fa
:04004c00400300006d
:020000040000fa
:040050004003000069
:020000040000fa
:040054004003000065
:020000040000fa
:040058004003000061
:020000040000fa
:04005c00400300005d
:020000040000fa
:040060004003000059
:020000040000fa
:040064004003000055
:020000040000fa
:040068004003000051
:020000040000fa
:04006c00400300004d
:020000040000fa
:040070004003000049
:020000040000fa
:040074004003000045
:020000040000fa
:040078004003000041
:020000040000fa
:04007c00400300003d
:020000040000fa
:040080004003000039
:020000040000fa
:040084004003000035
:020000040000fa
:040088004003000031
:020000040000fa
:04008c00400300002d
:020000040000fa
:040090004003000029
:020000040000fa
:040094004003000025
:020000040000fa
:040098004003000021
:020000040000fa
:04009c00400300001d
:020000040000fa
:0400a0004003000019
:020000040000fa
:0400a4004003000015
:020000040000fa
:0400a8004003000011
:020000040000fa
:0400ac00400300000d
:020000040000fa
:0400b0004003000009
:020000040000fa
:0400b4004003000005
:020000040000fa
:0400b8004003000001
:020000040000fa
:0400bc0040030000fd
:020000040000fa
:0400c00040030000f9
:020000040000fa
:0400c40040030000f5
:020000040000fa
:0400c80040030000f1
:020000040000fa
:0400cc0040030000ed
:020000040000fa
:0400d00040030000e9
:020000040000fa
:0400d40040030000e5
:020000040000fa
:0400d80040030000e1
:020000040000fa
:0400dc0040030000dd
:020000040000fa
:0400e00040030000d9
:020000040000fa
:0400e40040030000d5
:020000040000fa
:0400e80040030000d1
:020000040000fa
:0400ec0040030000cd
:020000040000fa
:0400f00040030000c9
:020000040000fa
:0400f40040030000c5
:020000040000fa
:0400f80040030000c1
:020000040000fa
:0400fc0040030000bd
:020000040000fa
:0401000040030000b8
:020000040000fa
:0401040040030000b4
:020000040000fa
:0401080040030000b0
:020000040000fa
:04010c0040030000ac
:020000040000fa
:0401100040030000a8
:020000040000fa
:0401140040030000a4
:020000040000fa
:0401180040030000a0
:020000040000fa
:04011c00400300009c
:020000040000fa
:040120004003000098
:020000040000fa
:040124004003000094
:020000040000fa
:040128004003000090
:020000040000fa
:04012c00400300008c
:020000040000fa
:040130004003000088
:020000040000fa
:040134004003000084
:020000040000fa
:040138004003000080
:020000040000fa
:04013c00400300007c
:020000040000fa
:040140004003000078
:020000040000fa
:040144004003000074
:020000040000fa
:040148004003000070
:020000040000fa
:04014c00400300006c
:020000040000fa
:040150004003000068
:020000040000fa
:040154004003000064
:020000040000fa
:040158004003000060
:020000040000fa
:04015c00400300005c
:020000040000fa
:040160004003000058
:020000040000fa
:040164004003000054
:020000040000fa
:0402080040030000af
:020000040000fa
:04020c0022030000c9
:020000040000fa
:0402100028030000bf
:020000040000fa
:040214002e030000b5
:020000040000fa
:0402180034030000ab
:020000040000fa
:04021c003a030000a1
:020000040000fa
:040220004003000097
:020000040000fa
:040224004003000093
:020000040000fa
:04022800400300008f
:020000040000fa
:04022c00400300008b
:020000040000fa
:040230004003000087
:020000040000fa
:040234004003000083
:020000040000fa
:04023800400300007f
:020000040000fa
:04023c00400300007b
:020000040000fa
:040240004003000077
:020000040000fa
:040244004003000073
:020000040000fa
:04024800400300006f
:020000040000fa
:04024c00400300006b
:020000040000fa
:040250004003000067
:020000040000fa
:040254004003000063
:020000040000fa
:04025800400300005f
:020000040000fa
:04025c00400300005b
:020000040000fa
:040260004003000057
:020000040000fa
:040264004003000053
:020000040000fa
:04026800400300004f
:020000040000fa
:04026c00400300004b
:020000040000fa
:040270004003000047
:020000040000fa
:040274004003000043
:020000040000fa
:04027800400300003f
:020000040000fa
:04027c00400300003b
:020000040000fa
:040280004003000037
:020000040000fa
:040284004003000033
:020000040000fa
:04028800400300002f
:020000040000fa
:04028c00400300002b
:020000040000fa
:040290004003000027
:020000040000fa
:040294004003000023
:020000040000fa
:04029800400300001f
:020000040000fa
:04029c00400300001b
:020000040000fa
:0402a0004003000017
:020000040000fa
:0402a4004003000013
:020000040000fa
:0402a800400300000f
:020000040000fa
:0402ac00400300000b
:020000040000fa
:0402b0004003000007
:020000040000fa
:0402b4004003000003
:020000040000fa
:0402b80040030000ff
:020000040000fa
:0402bc0040030000fb
:020000040000fa
:0402c00040030000f7
:020000040000fa
:0402c40040030000f3
:020000040000fa
:0402c80040030000ef
:020000040000fa
:0402cc0040030000eb
:020000040000fa
:0402d00040030000e7
:020000040000fa
:0402d40040030000e3
:020000040000fa
:0402d80040030000df
:020000040000fa
:0402dc0040030000db
:020000040000fa
:0402e00040030000d7
:020000040000fa
:0402e40040030000d3
:020000040000fa
:0402e80040030000cf
:020000040000fa
:0402ec0040030000cb
:020000040000fa
:0402f00040030000c7
:020000040000fa
:0402f40040030000c3
:020000040000fa
:0402f80040030000bf
:020000040000fa
:0402fc0040030000bb
:020000040000fa
:0403000040030000b6
:020000040000fa
:0403040040030000b2
:020000040000fa
:0403080040030000ae
:020000040000fa
:04030c0040030000aa
:020000040000fa
:0403100040030000a6
:020000040000fa
:0403140040030000a2
:020000040000fa
:04031800400300009e
:020000040000fa
:04031c00400300009a
:020000040000fa
:040320004003000096
:020000040000fa
:040324004003000092
:020000040000fa
:04032800400300008e
:020000040000fa
:04032c00400300008a
:020000040000fa
:040330004003000086
:020000040000fa
:040334004003000082
:020000040000fa
:04033800400300007e
:020000040000fa
:04033c00400300007a
:020000040000fa
:040340004003000076
:020000040000fa
:040344004003000072
:020000040000fa
:04034800400300006e
:020000040000fa
:04034c00400300006a
:020000040000fa
:040350004003000066
:020000040000fa
:040354004003000062
:020000040000fa
:04035800400300005e
:020000040000fa
:04035c00400300005a
:020000040000fa
:040360004003000056
:020000040000fa
:040364004003000052
:020000040000fa
:100400000f8020000e7f24000e01880000000000f5
:10041000000020000000e000020032000001200087
:100420002002880014000700970007000000e00089
:1004300003003a0000002000010020000200370005
:100440000000200001002000810f70000100320038
:1004500014000700000020000000e000020032004d
:100460000000020000000000e8030200000000009d
:100470000040da000000fe004440a9000000200017
:100480000000e0000300320000002000a00188000e
:100490004440a800000006008a1f78008b1f7800e7
:1004a0000000060091018800800478000000eb0045
:1004b0001a003700e284440032a0b4009905ba0063
:1004c000e284440032a0b4009906ba00e2844400f9
:1004d00032a0b4000006eb00476fde00fd07b2005b
:1004e000636ce10003003a00ebff07000000eb0043
:1004f0000a003700606ce10004003a00005deb0088
:100500008b05e900fdff3e00040037006168e10053
:10051000010032000086eb000b00070019c7ba008b
:100520001905ba000e04e00003003a000a00e000da
:10053000e0ff3a0000000600fe07b2009e018800be
:100540008a047800f5ff3700395dba008b05e900b1
:100550000c003200295dba008b05e900080032006a
:100560000c00e00003003a00e284440032a0b40032
:10057000f5ff370019ddba008b05e900faff3a00f4
:100580008904e800e184440032a0b40000000600c1
:10059000809fbe000000fa008500a9006016800060
:1005a0004200de006140600000c0ea00614060007f
:1005b0000080fb00610060004200dd0061168000e9
:1005c0000120a10001007000601688006016800004
:1005d0004300de006140600000c0ea00614060004e
:1005e0000080fb00610060004300dd0061168000b8
:1005f0000130a10001007000601688000080fa0040
:100600004f00be00004006000000fa008020a90054
:10061000ffff37000000fa008060a900ffff3700ed
:100620000000fa008040a900ffff37000000fa0038
:100630008080a900ffff37000000fa0080a0a90019
:10064000ffff37000000fa008020a900ffff3700fd
:100650000000fa008060a900ffff37000000fa00e8
:100660008040a900ffff37000000fa008080a90049
:10067000ffff37000000fa0080a0a900ffff37004d
:0c0680000000fa00ffff3700000005003a
:020000040000fa
:10068c000000fa00040007000a000700230007001e
:10069c000080fa00000006000000fa00c842a90021
:1006ac00c862a900c8e2a800c942a8000080fa00ec
:1006bc00000006000000fa0013e1a90011e1a900f6
:1006cc001061a8001021a90010c1a90081088000a8
:1006dc00f0fc2f0000806000800888000a21ef00e9
:1006ec000621ef00101320007008880000d02200b3
:1006fc00600888004105800080ff2f0000806000aa
:10070c000000a000400588008500a9009500a80005
:10071c0011e1a8000080fa00000006000000fa00b9
:10072c00e0012000303a8800213a8000f0f32f00dd
:10073c0000806000203a8800213a800000fe2f00e3
:10074c0000806000203a88003200200080072000e2
:10075c00a109200033742000804978008149780079
:10076c0082497800103a8000000178000200a00055
:10077c00600420007105200023742000804978005b
:10078c00814978008249780000000000113a80000d
:10079c00000027008080600000002300808f500044
:1007ac00faff3a0000000000113a8000000220001d
:1007bc00008060000000e000fbff32000080fa00c7
:1007cc00000006000000fa0002000700acff070062
:1007dc00ffff37000000fa000080fa00000006005e
:020000040000fa
:0200000401f009
:04000000ffff0000fe
:020000040000fa
:0200000401f009
:04000400ffff0000fa
:020000040000fa
:0200000401f009
:04000800ffff0000f6
:020000040000fa
:0200000401f009
:04000c0000000000f0
:020000040000fa
:0200000401f009
:040010006500000087
:020000040000fa
:0200000401f009
:040014005f00000089
:020000040000fa
:0200000401f009
:04001800f7000000ed
:020000040000fa
:0200000401f009
:04001c00dfff000002
:00000001FF
