:020000040000FA
:060000008A150A16002F0C
:063DFA00000000000000C3
:103E00008D270230F5002B30A227C13C03190B2F60
:103E1000F50B032F3A2FEB30B6278130B62702304F
:103E2000B62783014B30B627F001A127A1278312C3
:103E300003178F00F600A127831203178D00A12717
:103E4000F700A127F10020308400A1278000840A18
:103E5000F10B252FF008031D7C2F20308400771CE8
:103E6000332F7814112FF7183D2F7719692F5530FC
:103E7000B627142F9A278301FD2E781C402FF801B6
:103E80000430F900FA000008831203178C00840A3A
:103E900000088E00840A84307F27831203178D0A5E
:103EA000F90B432F8D03831603178C170C14000096
:103EB0000000840300083F39831203178E02031D9C
:103EC000792F840300088C02031D792FFA0B522FDF
:103ED000112F0008831203178C0004307F278C18E1
:103EE0006F2F0C140008831203178C02031D792F07
:103EF000112F5630B627142F4E30B627142F8316A5
:103F000003178C0055308D00AA308D008C140000F2
:103F100000008C18892F0C11080083160313403001
:103F200099009030831203139800243083160313F2
:103F30009800080083120313980183160313980155
:103F400008002B30F2006430F300F40183120313F5
:103F50008C1EAF2F831203131A08F0070800F40B0E
:103F6000A62FF30BA52FF20BA32F3A2F83120313C7
:0C3F7000990083160313981CBB2F080057
:00000001FF
