:020000040000FA
:0400000000EF3FF0DE
:047DFC000000000083
:107E00000F013A9F600ED36E4B6AABD8476AC80E1B
:107E1000B3D8C10805E0472A475002083FE0F7D72A
:107E2000530EBBD8830EB9D8000EB7D84B0EB5D8B9
:107E3000416AA1D8F86E9FD8F76E9DD8F66EA96EEC
:107E40009AD84A6E98D8426E436E00EE00F093D8EE
:107E5000EE6E422EFCD7416677D04AA210D0F8666B
:107E60000ED0F7660CD0F6660AD000EE00F0000ED9
:107E7000EE6EEF0EEE6E3F0EEE6EF00EEE6E00EE5C
:107E800000F04AA002D04B68D1D74AB209D04AB418
:107E900048D04AB650D0550E80D8CAD769D8AED788
:107EA0000000F8CF4CF0F7CF4DF0F6CF4EF0060EB5
:107EB000446ED8904C324D324E32442EFBD7010ED8
:107EC0004D5C16E6010E4D5C03E1F80E4E5C10E6CB
:107ED000010E4D5C02E001E60BD0010E4D5C05E1A8
:107EE000FF0E4E5C02E001E603D0500E56D8A0D73C
:107EF0004BA003D0940E2BD84B6A400E486E496EAF
:107F0000EECFF5FF0D00482EFBD70A00840E1FD8D8
:107F100000EE3FF00A00ED50F56213D0492EFAD77B
:107F200085D7EFCFA8FF040E12D8010EA680EF5020
:107F3000A86207D07BD7EFCFF5FF0C00C40E07D89F
:107F400075D7560E2AD874D74E0E27D871D7A66E7D
:107F5000550EA76EAA0EA76EA682A6B2FED7A6944D
:107F60001200240EAC6E190EAF6E900EAB6E1200A6
:107F7000AB6AAC6A1200C80E446E0D0E456E466ABE
:107F800004009EAA03D0AE5041261200462EF8D718
:107F9000452EF5D7442EF1D781D7AD6EACA2FED7D2
:027FA0001200CD
:020000040030CA
:0300010028021CB6
:02000500BC81BC
:060008000FC00FE00F40E5
:00000001FF
