:10000000000001308A00C3298030A100FE300D219C
:1000100001300D217530A90030307229A101A117DE
:10002000B500FE300D2135080D29AE01AF01B0013C
:10003000B101A7121221031C0800D33E0319A71611
:100040002D3EC63E03181A280A3E031C1A28AC008F
:10005000AB01AA01A9010A30A8009D212C0828079C
:10006000AE002908AF00030103180130AF072A08CA
:10007000B000030103180130B0072B08B1000301E1
:1000800003180130B107A50303194F281221031CDF
:100090000800C63E03184F280A3E03182728A71E4B
:1000A0005C28AE09AF09B009B109AE0A0319AF0A5D
:1000B0000319B00A0319B10A2E080314BF29A501B8
:1000C000AE00AF01A01125080319A0150530A4004A
:1000D0002730AD00103078200330AD00E8307820B4
:1000E000AD0164307820AD010A3078202E087F28D9
:1000F000AC002F08A9002E08A80081212808A8001C
:10010000A4030319A0112508031989282402031840
:1001100090282808031DA011A0199028303E0D2911
:100120000800B300061186118316061186110F30E0
:10013000860583123308A018BB283E30A900803002
:1001400072213330B200CF201330A90088307221E1
:10015000CF2064307121CF20643071212230B20071
:10016000CF202830BA200C30BA200630BA20A01494
:100170003308BB282014B200201CC9288611033C78
:10018000031CCE28CE200730A900D03072210314E2
:1001900008002014FE3C0319DE288615201C2010C0
:1001A00006150F3086053208F03986040000061166
:1001B000B20E00002018CF28553071213308BF2916
:1001C0009818181218162308A8002608A900AC01D0
:1001D000AD01EA28EB2800008C1A0529FF30AC0796
:1001E000031CAD07031CA807031CA907031CBF2998
:1001F0002C0FE9282D0FEA28FA30AC00AD01EB28CE
:100200009818181218168C1E03291A080314BF29EF
:100210000C1E082999000314BF29A11B912821193C
:1002200008290800BC080319E0283C030319002929
:10023000A400A201240803178D0003132508031747
:100240008F002B210319BF290D21A40A0319A50A28
:10025000A20F1A29BF29831603178C170C1400004C
:10026000000083120C08BF29AD0023088400260972
:10027000841780058413AD0803195D29F030AF00A1
:100280002C088038AE00F030AF030319AF0003191B
:10029000AD0303195D2926307121612103013A184C
:1002A0002608AC1F2608AC0803190301AE0F5A2913
:1002B000800640295B290000432926088417800412
:1002C000BF293B083A040319BA0A80303A1ABB0620
:1002D0003A19BB06BA18BB063B0DBA0DBB0D3A085E
:1002E000BF29A901FC3EA800A909031C7D29FF30F4
:1002F0000000A80703187829A8070000A90F77298C
:100300000800AF01AE011030B200290DAE0DAF0DE7
:100310002C08AE022D08031C2D0FAF0203189729DD
:100320002C08AE072D0803182D0FAF070310A80DDA
:10033000A90DB20B8529280808002030B200B601AB
:10034000B701B801B9010310281CB4292E08B6075B
:100350002F0803182F0FB70730080318300FB807FE
:1003600031080318310FB907B90CB80CB70CB60C2B
:10037000AB0CAA0CA90CA80CB20BA3290800831380
:100380008312031308008301831620309900203064
:100390009800831290309800A001073083169F00C8
:1003A0009C0083128A0104208030A1008A010E2063
:1003B0000230A50035308A0118218030A100C130FB
:1003C0008A010E200230A50046308A01182108302B
:1003D000A3000130A6007330AC0014308A01342130
:1003E0000730A600D030A300BC01A5018A0115206A
:1003F0008A110A12031C202ABD0022303D028A11F4
:100400000A12031D102A0430A1000230A500573043
:100410008A0118210D308A0108218A110A121D2A29
:100420000430A1000230A5007D308A0118213D086A
:100430008A015F200D308A0108218A110A122A2AB6
:100440000430A1000230A5008E308A0118210D3041
:100450008A010821023088068316881083128A01D7
:10046000F0298A01312A8A01332A20004B006E00CC
:1004700075007400730065006C006100610072001B
:100480002E00650075002000200000005700570076
:1004900057005700570057005700570057005700A4
:1004A00057005700570057005700570000005000F2
:1004B0004900430020003100360046003800370074
:1004C00037004100200062006F006F0074006C0074
:1004D0006F00610064006500720020007400650018
:1004E000730074002000700072006F0067007200DB
:1004F00061006D006D006100000044006100740047
:10050000610020004F006E007400760061006E00F4
:10051000670065006E003A002000000050004900AE
:10052000430020006F006E007400760061006E00D2
:100530006700740020006700650065006E00200001
:0E0540004400610074006100200020000000F3
:02400E00323F3F
:00000001FF
